:040000000EEF00F00F
:040008000EEF1BF0EC
:0800180077EF1EF093EF1CF0DE
:10260000001441923CE03F9A2DDA30AE343A30E08B
:1026100040F241EE41203E7A418241D2407241C2B5
:102620004004379236B24003020303020101030360
:1026300003000F011613591B1F091F1B000087EC15
:102640001DF09E9ED68ED68C4E0E0501806FEB0E31
:10265000E82EFED7802FFCD7D0EC20F093EC19F0B9
:1026600051EC20F0920E0501606F410E616FA6ECF7
:1026700020F0480E0501606F3E0E616FA1EC20F066
:102680009E8E21EEC3F111EE8AF1050EDBC4E3F458
:10269000E806FCE28A0E0501606F050E616F3F0ED1
:1026A000626FB7EC1BF0FDEC1CF078C596F579C5B0
:1026B00097F57AC598F596C590F597C591F598C5A3
:1026C00092F5B9EC1DF078C593F579C594F57AC506
:1026D00095F5000E0501846FD0500501C251D8B4A4
:1026E00074EF13F076EF13F0D6EF13F0C051D8B4B7
:1026F0007CEF13F07EEF13F0A5EF13F0D0BC83EF67
:1027000013F085EF13F08BEF13F0000E826F000EC5
:10271000816F8FEF13F0000E826F0A0E816F81C5FB
:1027200083F50A0E8F6F0A0E8E6F94510F0B8D6F0B
:1027300094390F0B0F0B8C6F93510F0B8B6F9339D9
:102740000F0B0F0B8A6FCBEF13F0FDEC1CF078C56D
:1027500096F579C597F57AC598F596C590F597C51C
:1027600091F598C592F5000E0501836F98510F0BF6
:102770008F6F98390F0B0F0B8E6F97510F0B8D6F5B
:1027800097390F0B0F0B8C6F96510F0B8B6F963980
:102790000F0B0F0B8A6F8A0E606F050E616F83C57A
:1027A00062F5B7EC1BF0000E0501C26FD0A4DBEFA1
:1027B00013F0DEEF13F0010EDFEF13F0000E856F64
:1027C0008505D8A4E6EF13F0E8EF13F0DAEF14F084
:1027D0008451D8A4EEEF13F0F0EF13F0FEEF13F0F6
:1027E000D3EC20F0000E0501616F000E606F52EC1B
:1027F0001DF0010E0501C26F010EC06F96519319B5
:10280000D8A405EF14F007EF14F024EF14F097515B
:102810009419D8A40EEF14F010EF14F024EF14F074
:1028200098519519D8A417EF14F019EF14F024EF6C
:1028300014F0C051D8A41FEF14F021EF14F024EFCE
:1028400014F0010E37EC1DF0D0B229EF14F02BEF8D
:1028500014F046EF14F00501C151D8A432EF14F082
:1028600034EF14F046EF14F0D3EC20F0000E050125
:10287000616F000E606F52EC1DF0010E0501C26F1A
:10288000010EC16F010EC06FC0EF14F0D0B04BEF5E
:1028900014F04DEF14F087EF14F00501C151D8A4E6
:1028A00054EF14F056EF14F087EF14F0D3EC20F04F
:1028B000000E0501616F000E606F52EC1DF0010EFD
:1028C0000501C26F010EC16F010EC06F9451BEECC5
:1028D0001FF00501866F3A0E866571EF14F073EFF5
:1028E00014F077EF14F0000E866F78EF14F0862B5B
:1028F0008651DDEC1CF00501946F93C578F594C505
:1029000079F595C57AF580EC1FF0C0EF14F0CEBED6
:102910008CEF14F08EEF14F0C0EF14F00501C151EC
:10292000D8A495EF14F097EF14F0C0EF14F0D3ECA7
:1029300020F0000E0501616F000E606F52EC1DF07B
:10294000010E0501C26F010EC16F010EC06F9351E0
:10295000BEEC1FF00501876F160E8765B2EF14F00D
:10296000B4EF14F0B8EF14F0000E876FB9EF14F065
:10297000872B8751DDEC1CF00501936F7DEF14F080
:10298000D0A2C5EF14F0C7EF14F076EF15F0D0A089
:10299000CCEF14F0CEEF14F076EF15F0CEAED3EF0F
:1029A00014F0D5EF14F076EF15F0000E0501C16FAD
:1029B00076EF15F08405D8A4E0EF14F0E2EF14F000
:1029C000E5EF14F0000E37EC1DF0D0B2EAEF14F092
:1029D000ECEF14F005EF15F00501C151D8A4F3EFA9
:1029E00014F0F5EF14F005EF15F0010EC26F010EB3
:1029F000C16F000E926F90C578F591C579F592C5BB
:102A00007AF5A0EC1DF05FEF15F0D0B00AEF15F0ED
:102A10000CEF15F032EF15F00501C151D8A413EFFA
:102A200015F015EF15F032EF15F0010EC26F010E23
:102A3000C16F9151BEEC1FF00501886F3A0E886599
:102A400024EF15F026EF15F02AEF15F0000E886F31
:102A50002BEF15F0882B8851DDEC1CF00501916FF0
:102A6000FBEF14F0CEBE37EF15F039EF15F05FEF46
:102A700015F00501C151D8A440EF15F042EF15F053
:102A80005FEF15F0010EC26F010EC16F9051BEECE9
:102A90001FF00501896F160E896551EF15F053EF90
:102AA00015F057EF15F0000E896F58EF15F0892BD0
:102AB0008951DDEC1CF00501906FFBEF14F0D0A202
:102AC00064EF15F066EF15F076EF15F0D0A06BEF20
:102AD00015F06DEF15F076EF15F0CEAE72EF15F044
:102AE00074EF15F076EF15F0D5EF14F0D0BE7BEF54
:102AF00015F07DEF15F090EF15F0040EDDEC1CF0F5
:102B00000501806F9651805DD8A089EF15F08BEF9D
:102B100015F090EF15F0040E9CEC20F0DDEF15F0B1
:102B2000D0BE95EF15F097EF15F0B5EF15F0160E36
:102B3000DDEC1CF005019661A0EF15F0A2EF15F099
:102B4000B0EF15F0050EDDEC1CF00501806F96511D
:102B5000805DD8A0AEEF15F0B0EF15F0B5EF15F031
:102B6000020E9CEC20F0DDEF15F0D0BEBAEF15F0B0
:102B7000BCEF15F0DAEF15F0140EDDEC1CF00501DA
:102B80009661C5EF15F0C7EF15F0D5EF15F0060EFD
:102B9000DDEC1CF00501806F9651805DD8A0D3EF6D
:102BA00015F0D5EF15F0DAEF15F0010E9CEC20F0E2
:102BB000DDEF15F0000E9CEC20F085C584F591EC5E
:102BC0001FF06DEF13F00EEF00F02F502E5CD8A029
:102BD000ECEF15F0EEEF15F0C9EF16F02F50D8A47A
:102BE000F4EF15F0F6EF15F0A0EF16F077EC20F00B
:102BF000A0EF16F0BF94BF8E270E2D24D96EDA6A8F
:102C0000050EDA22DF50D8A408EF16F00AEF16F00E
:102C100010EF16F0000E1F6E0A0E1E6E1BEF16F060
:102C2000270E2D24D96EDA6A050EDA22DF501C6ECB
:102C30001C501E6E1F6A30B020EF16F023EF16F006
:102C4000010E24EF16F0000E016E1E5007EC19F075
:102C50002D2AC5EF16F0BF9EBF8C30B232EF16F0B2
:102C600035EF16F0010E36EF16F0000E016E270E4E
:102C70002D24D96EDA6A050EDA22DF5007EC19F03E
:102C800028EF16F0BF9CBF8A30B449EF16F04CEF26
:102C900016F0010E4DEF16F0000E016E270E2D24DA
:102CA000D96EDA6A050EDA22DF5007EC19F028EF48
:102CB00016F0BF9ABF8830B660EF16F063EF16F0DB
:102CC000010E64EF16F0000E016E270E2D24D96E52
:102CD000DA6A050EDA22DF5007EC19F028EF16F059
:102CE000BF98BF8630B877EF16F07AEF16F0010E76
:102CF0007BEF16F0000E016E270E2D24D96EDA6AD6
:102D0000050EDA22DF5007EC19F028EF16F0BF9617
:102D1000BF8430BA8EEF16F091EF16F0010E92EFED
:102D200016F0000E016E270E2D24D96EDA6A050EFC
:102D3000DA22DF5007EC19F0000E2D6EC5EF16F009
:102D40002D501C6E1D6A1D50000AD8B4AAEF16F053
:102D5000C5EF16F01C50000AD8B4FAEF15F0010ABE
:102D6000D8B42BEF16F0030AD8B442EF16F0010ADC
:102D7000D8B459EF16F0070AD8B470EF16F0010A6C
:102D8000D8B487EF16F0C5EF16F0000E2E6ECCEF1C
:102D900016F077EC20F02E2A120006EC20F0000945
:102DA000D8B4D5EF16F0D7EF16F012EF17F0E4EF26
:102DB00016F070EC20F060EF17F0F9EC20F060EF07
:102DC00017F0000E60EF17F0ABC569F5ACC56AF5FA
:102DD00002D8F5EF16F00500FA6E05019F51FD6E61
:102DE000A051FE6EFF6AFA50120005016B6F6C6B0A
:102DF0006C51000AD8B4FFEF16F0E1EF16F06B51FA
:102E0000010AD8B4E1EF16F0030AD8B4D9EF16F0EE
:102E1000010AD8B4DDEF16F0070AD8B4E1EF16F0D6
:102E2000E1EF16F0FBEC1FF00009D8B41AEF17F031
:102E30001CEF17F05FEF17F00501BC51030B000901
:102E4000D8B425EF17F027EF17F033EF17F0010E86
:102E50006B6FBC51030B6C6F6B516C5FBC516C1989
:102E6000FC0B6C19BC6F6100D8F6D9F46100DCF67C
:102E7000DAF4DF506D6FB64BB72BB807D8A0B9079F
:102E8000B851B911D8A447EF17F049EF17F052EF36
:102E900017F057EC1AF005016B6F6B516F6F706B89
:102EA00056EF17F0000E706F030E6F6F6FC56EF563
:102EB0006D5190EC20F005016E5160EF17F0030E9C
:102EC0001200000E0501656F63BF6BEF17F069EF2D
:102ED00017F071EF17F0626D631FD8B0632B010E0E
:102EE000656F61BF78EF17F076EF17F07EEF17F0A0
:102EF000606D611FD8B0612B010E651B000E676FFE
:102F0000000E666F62516311D8B489EF17F08BEF32
:102F100017F0B3EF17F0010E646F93EF17F0D8902E
:102F200062376337642B63AF98EF17F09AEF17F0AF
:102F30008FEF17F0D890663767376251605D635145
:102F40006159D8A0A6EF17F0A8EF17F0ADEF17F072
:102F50006251605F6351615B6681D8906333623315
:102F6000642F9AEF17F06551D8B4B9EF17F0BBEFA3
:102F700017F0BFEF17F0666D671FD8B0672B66C5F7
:102F800060F567C561F51200000E0501656F61BF50
:102F9000CEEF17F0CCEF17F0D4EF17F0606D611F94
:102FA000D8B0612B010E656F63BFDBEF17F0D9EF6F
:102FB00017F0DFEF17F0626D631FD8B0632B62511B
:102FC0006311D8B4E6EF17F0E8EF17F00CEF18F044
:102FD000010E646FF0EF17F0D89062376337642BFF
:102FE00063AFF5EF17F0F7EF17F0ECEF17F0625162
:102FF000605D63516159D8A000EF18F002EF18F03E
:1030000006EF18F06251605F6351615BD8906333E3
:103010006233642FF7EF17F06551D8B412EF18F050
:1030200014EF18F018EF18F0606D611FD8B0612B25
:1030300060C560F561C561F512000501BC893FEF0F
:1030400018F0E5EC20F0080E6CEF18F0E5EC20F03D
:10305000070E6CEF18F0B82948EC20F0040E6CEF66
:1030600018F0070EBA19D8B438EF18F03AEF18F084
:103070003CEF18F0E8EC20F00F0E6CEF18F0A5C54F
:1030800069F5A6C56AF502D84FEF18F00500FA6E8B
:103090009951FD6E9A51FE6EFF6AFA5012000501B9
:1030A0006B6F6C6B6C51000AD8B459EF18F031EFAC
:1030B00018F06B51010AD8B431EF18F0030AD8B4F4
:1030C00026EF18F0010AD8B421EF18F0070AD8B497
:1030D0002BEF18F031EF18F0120011EC20F000097E
:1030E000D8A475EF18F077EF18F07AEF18F0040E07
:1030F000BCEF18F00501BC51030B0009D8B483EFF5
:1031000018F085EF18F091EF18F0010E6D6FBC51BB
:10311000030B6E6F6D516E5FBC516E19FC0B6E1917
:10312000BC6FB807D8A0B907B851B911D8B49BEF94
:1031300018F09DEF18F0ABEF18F0E2EC20F0610012
:10314000D8F6D9F46100DCF6DAF4DF6E0501B64B8F
:10315000B72B77EF18F01DEC18F005016F6FE2EC5C
:1031600020F06100D8F6D9F46100DCF6DAF4DF6E05
:103170000501B64BB72B6F5112000501606F010EB0
:103180000501616FBCB7C7EF18F0C9EF18F005EF84
:1031900019F060C5B5F5BC95BC87FC0EBC170F0EC9
:1031A000BA6F010EB46FF40EB36FBC89FA0E996F4B
:1031B000410E9A6F000EA56F000EA66FFA0E9B6F60
:1031C000410E9C6F000EA76F000EA86FFA0E9D6F48
:1031D000410E9E6F000EA96F000EAA6FFA0E9F6F30
:1031E000410EA06F000EAB6F000EAC6FF60EA16F1C
:1031F000410EA26F000EAD6F000EAE6FC5EC20F059
:10320000D2EC1EF0000E0501616F615112001B6EC1
:10321000320EF66E260EF76E000EF86E21EE03F1FA
:103220000A0E0900F5C4DEF4E806FBE2270EF66E8E
:10323000260EF76E000EF86E21EE0EF10A0E090052
:10324000F5C4DEF4E806FBE20150D8A42AEF19F039
:103250002CEF19F032EF19F0000E1A6E000E196EF5
:1032600036EF19F0000E1A6E200E196E030E1B2495
:10327000D96EDA6A050EDA22DF501910026EBE50DE
:10328000800B0210BE6E0E0E1B24D96EDA6A050E7C
:10329000DA22DF50026EBF50FC0B0210BF6E12002C
:1032A0000501646F050160516111D8B45AEF19F03E
:1032B0005CEF19F07AEF19F06451020D990EF324C6
:1032C000D96E050EF420DA6E610080F5DEF461003F
:1032D00084F5DDF46451020DA50EF324D96E050EBC
:1032E000F420DA6E610088F5DEF461008CF5DDF41F
:1032F00092EF19F06451020D990EF324D96E050E68
:10330000F420DA6EFA0EDE6E410EDD6E6451020DAF
:10331000A50EF324D96E050EF420DA6E000EDE6ED3
:10332000000EDD6E1200BDC57DF5BEC57EF5BFC5C4
:103330007FF50D0E0501756F080E766F320ED2EC1B
:103340001AF00F0E0501756F400E766F320ED2EC3B
:103350001AF00E0E0501756F320E16EC1AF005010B
:103360007C6F7CC57BF5110E7B17D8B4BAEF19F0D2
:10337000BCEF19F0CCEF19F07DC578F57EC579F575
:103380007FC57AF5A0EC1DF07DC578F57EC579F591
:103390007FC57AF580EC1FF00E0E0501756F000EEB
:1033A000766F320ED2EC1AF01200000EBE6E000ED6
:1033B000BF6E000EC06E080ECA6E800EC66E000E86
:1033C000C76EC70EC86E200E0401106F08697F0E0D
:1033D000006F000E216F000E096F000E016F000ECE
:1033E000116F000E026F000E0A6F180E126F036944
:1033F0000B69136904690C691469080E246F179D21
:10340000168D158D020E0501606F420E616FA6ECE0
:1034100020F09E8E140E0201706F370E146F380E5E
:10342000156F010E166F130E716F12000501766F86
:10343000000E0501776F05017651BDEC18F000090B
:10344000D8B425EF1AF027EF1AF01BEF1AF0020E8E
:103450000501656F3C0E666F770E676F050E686F2E
:10346000E4EC1FF0750E0501606F050E616F000E34
:10347000636F010E626F6EEC1FF0000E0501656F49
:10348000000E666F000E676F000E686FD8EC1FF0BD
:10349000B5EC20F060EC1EF0E806D8B452EF1AF05C
:1034A00054EF1AF04AEF1AF00501775112000501A6
:1034B000BC896BEF1AF0E5EC20F0070E94EF1AF0E0
:1034C000B82948EC20F0030E94EF1AF0E8EC20F055
:1034D0000A0E94EF1AF0A5C569F5A6C56AF502D8DB
:1034E0007BEF1AF00500FA6E9951FD6E9A51FE6E4F
:1034F000FF6AFA50120005016B6F6C6B6C51000A89
:10350000D8B485EF1AF066EF1AF06B51010AD8B4FF
:1035100066EF1AF0030AD8B45BEF1AF0060AD8B4C3
:1035200060EF1AF066EF1AF0120042EC1CF0050191
:10353000BC51030B0009D8B4A0EF1AF0A2EF1AF0A7
:10354000AFEF1AF006EC20F00009D8B4AAEF1AF099
:10355000ACEF1AF0AFEF1AF0100E0501BA6F0501CB
:10356000BA51020D010EF324F66E260EF420F76E0A
:10357000F86A000EF82209006100D4F371F5090021
:103580006100D4F372F502D8CFEF1AF00500FA6E9D
:103590007151FD6E7251FE6EFF6AFA501200050104
:1035A000BA6F12000501776F05017751BDEC18F075
:1035B0000009D8B4DEEF1AF0E0EF1AF0D4EF1AF0F9
:1035C000A20E0501656F3B0E666F760E676F050EE6
:1035D000686FE4EC1FF0750E0501606F050E616FFA
:1035E000000E636F010E626F6EEC1FF0000E05019E
:1035F000656F000E666F000E676F000E686FD8EC87
:103600001FF0B5EC20F060EC1EF0E806D8B40BEF2C
:103610001BF00DEF1BF003EF1BF012006100D8F35D
:1036200020F56100DCF321F56100E0F322F5610093
:10363000D4F323F5A1AE1FEF1BF021EF1BF02CEF0D
:103640001BF0B1AE26EF1BF028EF1BF02CEF1BF0A8
:10365000A5EC1EF03CEF1BF09EAE31EF1BF033EFFC
:103660001BF03CEF1BF0AEAE38EF1BF03AEF1BF057
:103670003CEF1BF03DEC20F061008CF4F5F46100B0
:1036800088F4F8F4610084F4F7F4610080F4F6F44F
:103690001100C5EC20F0020E0501BB6F5CEF1BF0C2
:1036A00070EC20F081EF1BF0F9EC20F081EF1BF0C3
:1036B00061EC20F081EF1BF0A7C569F5A8C56AF59C
:1036C00002D86CEF1BF00500FA6E9B51FD6E9C5109
:1036D000FE6EFF6AFA50120005016B6F6C6B6C5145
:1036E000000AD8B476EF1BF058EF1BF06B51020ABA
:1036F000D8B450EF1BF0010AD8B454EF1BF058EFC8
:103700001BF01200FC0E0501BC17020EBB6FBC952E
:1037100091EF1BF0F7EC20F0B6EF1BF00F0EB6EFB9
:103720001BF0A9C569F5AAC56AF502D8A1EF1BF07F
:103730000500FA6E9D51FD6E9E51FE6EFF6AFA50B5
:10374000120005016B6F6C6B6C51000AD8B4ABEFC3
:103750001BF08EEF1BF06B51020AD8B48AEF1BF0FE
:10376000010AD8B48AEF1BF08EEF1BF01200610043
:1037700080F5D9F4610084F5DAF4DF50276E050195
:1037800020EE01F06051D9266151DA22DF50286E17
:1037900020EE02F06051D9266151DA22DF50296E05
:1037A00020EE03F06051D9266151DA22DF502A6EF3
:1037B00020EE04F06051D9266151DA22DF502B6EE1
:1037C00020EE05F06051D9266151DA22DF502C6ECF
:1037D00062C530F51200B5A2F0EF1BF0F2EF1BF05E
:1037E000F4EF1BF017EF1CF0B5A0F9EF1BF0FBEFA7
:1037F0001BF0FDEF1BF017EF1CF002019AA503EF81
:103800001CF005EF1CF007EF1CF017EF1CF09AAF4F
:103810000CEF1CF00EEF1CF010EF1CF017EF1CF07B
:1038200097A915EF1CF017EF1CF0EBEF1BF012003F
:103830000501736F010E0501746FBCB522EF1CF01A
:1038400024EF1CF03FEF1CF0BC85000E746FB851E4
:1038500048EC20F005017351D8B431EF1CF033EF80
:103860001CF039EF1CF0040EBA6F49EC1EF03DEF6E
:103870001CF0030EBA6FF0EC1FF0A1EC1FF0050175
:103880007451120032EC20F00009D8B44AEF1CF059
:103890004CEF1CF050EF1CF0F1EC20F06AEF1CF044
:1038A0001CEC20F00009D8B458EF1CF05AEF1CF0C3
:1038B0005EEF1CF0EBEC20F06AEF1CF027EC20F040
:1038C0000009D8B466EF1CF068EF1CF06AEF1CF03A
:1038D000EEEC20F01200050120EE02F06951D9262D
:1038E0006A51DA22610078F360F5610074F361F5E2
:1038F0006100A4F5D9F46100A8F5DAF4610078F369
:1039000062F5610074F363F56EEC1FF0000E0501C3
:10391000656F000E666F000E676F000E686FE4EC57
:103920001FF0020E12009A0EF66E410EF76E000E98
:10393000F86E01EEC3F110EE06F00900F5C4EEF4E6
:10394000E550E150FAE101EE99F12A0EEE6AE8063F
:10395000FDE101EE27F10B0EEE6AE806FDE1040140
:10396000080E5D6F000E5E6F000E5F6F00011FEFAF
:1039700013F0000E03011F6F000E206F050E216F64
:10398000850E1D6FEE0E1C6FB1981C51600074FC0B
:1039900062F50501636B62C563F5626B6211366E99
:1039A0006351376EA188FE0E606F410E616FA1EC0E
:1039B00020F0300E03011E6F120005016A6F6AC508
:1039C00060F50501616B000E636F0A0E626FC4EC57
:1039D00017F060C568F561C569F56AC560F5050150
:1039E000616B000E636F0A0E626F61EC17F00501E8
:1039F0006051100DF35068251200000E0501756F1F
:103A0000320E16EC1AF005017D6F010E756F320E45
:103A100016EC1AF005017C6F020E756F320E16EC73
:103A20001AF005017B6F7BC578F57CC579F57DC5FE
:103A30007AF51200B19836C524F537C525F58EEC18
:103A40001EF034503510D8B428EF1DF02AEF1DF0C9
:103A500036EF1DF002D836EF1DF00500FA6E345037
:103A6000FD6E3550FE6EFF6AFA501200120005011D
:103A7000606F050160B103D00401469F02D00401CC
:103A8000468F050160B103D004014E9F02D00401AE
:103A90004E8F050160B103D00401569F02D004018E
:103AA000568F120003011EA558EF1DF05AEF1DF0AE
:103AB00065EF1DF01E910501615103011D6F61004D
:103AC00080F51CF31E816CEF1DF0050161510301AF
:103AD0001D6F610080F51CF31200000E0001D56F10
:103AE000080ED76F2A0ED86F2B0ED96F2C0EDA6FF7
:103AF000090EDB6F020EDC6F080EDD6F200EDE6F2D
:103B0000000EDF6F000ED46F820ED66F120084ECB1
:103B100020F0FCEC1EF0BCEC1EF0D5EC19F0CCEC67
:103B20001FF07EEC20F038EC1FF04AEC1FF06DEC3B
:103B30001DF05CEC1FF0B9EC1CF0E8EC1EF012007C
:103B4000000E0501756F7AC576F5320ED2EC1AF0CB
:103B5000010E0501756F79C576F5320ED2EC1AF0BB
:103B6000020E0501756F78C576F5320ED2EC1AF0AB
:103B70001200080E0501756F320E16EC1AF00501E1
:103B80007C6F090E756F320E16EC1AF005017B6F13
:103B9000000E7D6F7BC578F57CC579F57DC57AF51E
:103BA000120069C560F56AC561F5000E0501636F15
:103BB000010E626F6EEC1FF0000E0501656F000EC6
:103BC000666F000E676F000E686FE4EC1FF0040E66
:103BD000120069C560F56AC561F5000E0501636FE5
:103BE000020E626F6EEC1FF0000E0501656F000E95
:103BF000666F000E676F000E686FE4EC1FF0020E38
:103C0000120069C560F56AC561F5000E0501636FB4
:103C1000010E626F6EEC1FF0000E0501656F000E65
:103C2000666F000E676F000E686FE4EC1FF0020E07
:103C3000120069C560F56AC561F5000E0501636F84
:103C4000020E626F6EEC1FF0000E0501656F000E34
:103C5000666F000E676F000E686FE4EC1FF0040ED5
:103C6000120032503310D8B438EF1EF03AEF1EF085
:103C700046EF1EF002D846EF1EF00500FA6E3250F5
:103C8000FD6E3350FE6EFF6AFA5012000401179D5C
:103C900012000501BC51FC0B0209BC6FB805B9113B
:103CA000D8A455EF1EF057EF1EF059EF1EF01DEC93
:103CB00018F0D8800501B53590EC20F0040E120004
:103CC000010E0501606FBCB568EF1EF06AEF1EF0D3
:103CD00074EF1EF0BC97B569C5EC20F0B0EC1FF096
:103CE00096EC20F0BBC560F5050160511200610043
:103CF00060F326F5A1A87FEF1EF081EF1EF08AEF9A
:103D00001EF0B1A886EF1EF088EF1EF08AEF1EF0BD
:103D10001AEC1DF0610098F4D8F4110003011EA5FF
:103D200094EF1EF096EF1EF09FEF1EF01E912550AF
:103D30001D6F610090F41CF31E81A4EF1EF025504E
:103D40001D6F610090F41CF31200B19E38503910C1
:103D5000D8B4ADEF1EF0AFEF1EF0BBEF1EF002D8EF
:103D6000BBEF1EF00500FA6E3850FD6E3950FE6E46
:103D7000FF6AFA5012001200840E0201946F800E46
:103D8000956F180E966F000E9E6F000E9A6F000EC4
:103D90009B6F000E976F000E8C6F000E8D6F000EE4
:103DA0009D6F1200020194BFD8EF1EF0DAEF1EF0F3
:103DB000E7EF1EF0000E9A6F000E9B6F000E976FDC
:103DC000000E8C6F000E8D6F000E9D6F948F120091
:103DD000430E03011B6F7C0E196F000E186FB19E0E
:103DE000A18E000E0501606F420E616FABEC20F0FA
:103DF000800E03011A6F1200000E0001606F000EAA
:103E0000616F000E626F000E636F000E646F000E34
:103E1000656F000E666F000E676F000E686F120010
:103E2000D9EC20F0D6EC20F00009D8B41AEF1FF03E
:103E30001CEF1FF022EF1FF0000E48EC20F0000EE8
:103E400090EC20F0000E1200070E3118D8A42BEFD2
:103E50001FF02DEF1FF036EF1FF0000E0501C06FB1
:103E6000F4EC20F0000E316E37EF1FF0312A120013
:103E7000000E0401566F030E576F000E526F000EB6
:103E8000516F000E506F000E556F000E546F2E0EC6
:103E9000536F1200000E04014E6F030E4F6F000EA1
:103EA0004A6F000E496F000E486F000E4D6F000EF6
:103EB0004C6F040E4B6F1200000E0401466F030E90
:103EC000476F000E426F000E416F000E406F000EF4
:103ED000456F410E446F890E436F12000501BCA966
:103EE00074EF1FF076EF1FF07FEF1FF060C5B6F59F
:103EF00061C5B7F562C5B8F563C5B9F5BC991200DF
:103F0000080E0501756F79C576F5320ED2EC1AF000
:103F1000090E0501756F78C576F5320ED2EC1AF0F0
:103F20001200000ED6BE010E0501606FD69E000184
:103F300078510400050160B102D0D69E01D0D68E22
:103F40001200A7EF1FF0EBEC1BF095EC1AF0050147
:103F5000BCB5ADEF1FF0AFEF1FF0A3EF1FF01200E5
:103F6000A594A596A590A59202019B919B959B9FD8
:103F70009B9D9B9397939795979112000501616F75
:103F800061C560F50F0E0501601761390F0B0F0B4E
:103F90000A0DF35060251200600E0001AD6F000E97
:103FA000AF6F000EB36F030EB16F000EB06F120053
:103FB00065C560F566C561F567C562F568C563F5F9
:103FC000020E50EC19F0120065C560F566C561F58A
:103FD00067C562F568C563F5000E50EC19F0120074
:103FE0000501BC51FC0B0209BC6FB551B52590EC25
:103FF00020F0030E1200020199BB01EF20F004EF44
:1040000020F0010E05EF20F0000E1200020195BB1A
:104010000CEF20F00FEF20F0010E10EF20F0000E5B
:104020001200020199B117EF20F01AEF20F0010EF3
:104030001BEF20F0000E120002019AB522EF20F0D3
:1040400025EF20F0010E26EF20F0000E12000201F5
:1040500097B92DEF20F030EF20F0010E31EF20F076
:10406000000E120002019ABF38EF20F03BEF20F063
:10407000010E3CEF20F0000E1200040117AD43EFDB
:1040800020F045EF20F047EF20F031EC1EF0120059
:104090000501606F610080F58CF2000E02018D6FEA
:1040A0001200CA0E0501606F2B0E616FABEC20F0A1
:1040B0001200B0EC20F00501BC95020EBB6F0F0E94
:1040C0001200B0EC20F00501BC95000EBB6F0F0E86
:1040D0001200DCEC20F0D9EC20F08AEC20F0120089
:1040E0000501B85148EC20F049EC1EF01200BE501A
:1040F000800BBE6EBF50FC0BBF6E1200160E00018F
:10410000786F370E796F1200D68A0301658F628F40
:10411000659912000501BC95000EBB6F0F0E1200D1
:104120000501606F610080F58BF212000201949F1F
:10413000000E9A6F998512000501606F60C52FF51A
:10414000120060C534F561C535F5120060C532F561
:1041500061C533F5120060C538F561C539F5120047
:104160000201949F9985948F1200000E18EC1CF0A8
:104170001200DCEC20F0090E1200DFEC20F0040E3F
:104180001200DFEC20F0030E1200000E02019A6F05
:104190001200010E0501C26F120008080808080885
:1041A00000017881120003011E81120002018C516E
:1041B00012000201949B12000201958D120002016F
:1041C000959D120002018A5112000201948D120085
:1041D0000201949D120002019A9512000201979922
:1041E000120002019A9F120003011E911200010E9B
:1041F0001200020E1200050E1200010E1200120033
:044200001200120096
:020000040020DA
:10000000FF0FFF0FFF0FFF0FFF0FFF0FFF0FFF0F80
:10001000FF0FFF0FFF0FFF0FFF0FFF0FFF0FFF0F70
:020000040030CA
:10000000ECEFF7FFBFFFFFFFFFFFFFFFFFFFFFFF6B
:10001000FFFFFFFFFFFFFFFFFFFFFFFFFFFFFFFFF0
:04002000FFFFFFFFE0
:00000001FF
